{
  "_format": "hh-sol-artifact-1",
  "contractName": "COYToken",
  "sourceName": "contracts/COYToken.sol",
  "abi": [
    {
      "inputs": [],
      "stateMutability": "nonpayable",
      "type": "constructor"
    },
    {
      "anonymous": false,
      "inputs": [
        {
          "indexed": true,
          "internalType": "address",
          "name": "owner",
          "type": "address"
        },
        {
          "indexed": true,
          "internalType": "address",
          "name": "spender",
          "type": "address"
        },
        {
          "indexed": false,
          "internalType": "uint256",
          "name": "value",
          "type": "uint256"
        }
      ],
      "name": "Approval",
      "type": "event"
    },
    {
      "anonymous": false,
      "inputs": [
        {
          "indexed": true,
          "internalType": "address",
          "name": "account",
          "type": "address"
        },
        {
          "indexed": false,
          "internalType": "uint256",
          "name": "amount",
          "type": "uint256"
        },
        {
          "indexed": true,
          "internalType": "bytes32",
          "name": "goal",
          "type": "bytes32"
        }
      ],
      "name": "Burned",
      "type": "event"
    },
    {
      "anonymous": false,
      "inputs": [
        {
          "indexed": true,
          "internalType": "address",
          "name": "donater",
          "type": "address"
        },
        {
          "indexed": false,
          "internalType": "uint256",
          "name": "amount",
          "type": "uint256"
        }
      ],
      "name": "Donated",
      "type": "event"
    },
    {
      "anonymous": false,
      "inputs": [
        {
          "indexed": true,
          "internalType": "address",
          "name": "previousOwner",
          "type": "address"
        },
        {
          "indexed": true,
          "internalType": "address",
          "name": "newOwner",
          "type": "address"
        }
      ],
      "name": "OwnershipTransferred",
      "type": "event"
    },
    {
      "anonymous": false,
      "inputs": [
        {
          "indexed": true,
          "internalType": "address",
          "name": "from",
          "type": "address"
        },
        {
          "indexed": true,
          "internalType": "address",
          "name": "to",
          "type": "address"
        },
        {
          "indexed": false,
          "internalType": "uint256",
          "name": "value",
          "type": "uint256"
        }
      ],
      "name": "Transfer",
      "type": "event"
    },
    {
      "anonymous": false,
      "inputs": [
        {
          "indexed": true,
          "internalType": "address",
          "name": "buyer",
          "type": "address"
        },
        {
          "indexed": true,
          "internalType": "address",
          "name": "seller",
          "type": "address"
        },
        {
          "indexed": false,
          "internalType": "uint256",
          "name": "amount",
          "type": "uint256"
        }
      ],
      "name": "TxComplete",
      "type": "event"
    },
    {
      "inputs": [
        {
          "internalType": "address",
          "name": "owner",
          "type": "address"
        },
        {
          "internalType": "address",
          "name": "spender",
          "type": "address"
        }
      ],
      "name": "allowance",
      "outputs": [
        {
          "internalType": "uint256",
          "name": "",
          "type": "uint256"
        }
      ],
      "stateMutability": "view",
      "type": "function"
    },
    {
      "inputs": [
        {
          "internalType": "address",
          "name": "spender",
          "type": "address"
        },
        {
          "internalType": "uint256",
          "name": "amount",
          "type": "uint256"
        }
      ],
      "name": "approve",
      "outputs": [
        {
          "internalType": "bool",
          "name": "",
          "type": "bool"
        }
      ],
      "stateMutability": "nonpayable",
      "type": "function"
    },
    {
      "inputs": [
        {
          "internalType": "address",
          "name": "account",
          "type": "address"
        }
      ],
      "name": "balanceOf",
      "outputs": [
        {
          "internalType": "uint256",
          "name": "",
          "type": "uint256"
        }
      ],
      "stateMutability": "view",
      "type": "function"
    },
    {
      "inputs": [
        {
          "internalType": "uint256",
          "name": "amount",
          "type": "uint256"
        },
        {
          "internalType": "bytes32",
          "name": "goal",
          "type": "bytes32"
        }
      ],
      "name": "burn",
      "outputs": [],
      "stateMutability": "nonpayable",
      "type": "function"
    },
    {
      "inputs": [
        {
          "internalType": "bytes32",
          "name": "",
          "type": "bytes32"
        }
      ],
      "name": "burnedTokens",
      "outputs": [
        {
          "internalType": "uint256",
          "name": "",
          "type": "uint256"
        }
      ],
      "stateMutability": "view",
      "type": "function"
    },
    {
      "inputs": [],
      "name": "decimals",
      "outputs": [
        {
          "internalType": "uint8",
          "name": "",
          "type": "uint8"
        }
      ],
      "stateMutability": "view",
      "type": "function"
    },
    {
      "inputs": [
        {
          "internalType": "address",
          "name": "spender",
          "type": "address"
        },
        {
          "internalType": "uint256",
          "name": "subtractedValue",
          "type": "uint256"
        }
      ],
      "name": "decreaseAllowance",
      "outputs": [
        {
          "internalType": "bool",
          "name": "",
          "type": "bool"
        }
      ],
      "stateMutability": "nonpayable",
      "type": "function"
    },
    {
      "inputs": [
        {
          "internalType": "address",
          "name": "seller",
          "type": "address"
        }
      ],
      "name": "donate",
      "outputs": [],
      "stateMutability": "payable",
      "type": "function"
    },
    {
      "inputs": [
        {
          "internalType": "address",
          "name": "spender",
          "type": "address"
        },
        {
          "internalType": "uint256",
          "name": "addedValue",
          "type": "uint256"
        }
      ],
      "name": "increaseAllowance",
      "outputs": [
        {
          "internalType": "bool",
          "name": "",
          "type": "bool"
        }
      ],
      "stateMutability": "nonpayable",
      "type": "function"
    },
    {
      "inputs": [],
      "name": "justDonate",
      "outputs": [],
      "stateMutability": "payable",
      "type": "function"
    },
    {
      "inputs": [],
      "name": "name",
      "outputs": [
        {
          "internalType": "string",
          "name": "",
          "type": "string"
        }
      ],
      "stateMutability": "view",
      "type": "function"
    },
    {
      "inputs": [],
      "name": "owner",
      "outputs": [
        {
          "internalType": "address",
          "name": "",
          "type": "address"
        }
      ],
      "stateMutability": "view",
      "type": "function"
    },
    {
      "inputs": [],
      "name": "renounceOwnership",
      "outputs": [],
      "stateMutability": "nonpayable",
      "type": "function"
    },
    {
      "inputs": [],
      "name": "symbol",
      "outputs": [
        {
          "internalType": "string",
          "name": "",
          "type": "string"
        }
      ],
      "stateMutability": "view",
      "type": "function"
    },
    {
      "inputs": [],
      "name": "totalSupply",
      "outputs": [
        {
          "internalType": "uint256",
          "name": "",
          "type": "uint256"
        }
      ],
      "stateMutability": "view",
      "type": "function"
    },
    {
      "inputs": [
        {
          "internalType": "address",
          "name": "to",
          "type": "address"
        },
        {
          "internalType": "uint256",
          "name": "amount",
          "type": "uint256"
        }
      ],
      "name": "transfer",
      "outputs": [
        {
          "internalType": "bool",
          "name": "",
          "type": "bool"
        }
      ],
      "stateMutability": "nonpayable",
      "type": "function"
    },
    {
      "inputs": [
        {
          "internalType": "address",
          "name": "from",
          "type": "address"
        },
        {
          "internalType": "address",
          "name": "to",
          "type": "address"
        },
        {
          "internalType": "uint256",
          "name": "amount",
          "type": "uint256"
        }
      ],
      "name": "transferFrom",
      "outputs": [
        {
          "internalType": "bool",
          "name": "",
          "type": "bool"
        }
      ],
      "stateMutability": "nonpayable",
      "type": "function"
    },
    {
      "inputs": [
        {
          "internalType": "address",
          "name": "newOwner",
          "type": "address"
        }
      ],
      "name": "transferOwnership",
      "outputs": [],
      "stateMutability": "nonpayable",
      "type": "function"
    }
  ],
  "bytecode": "0x60806040523480156200001157600080fd5b506040518060400160405280600881526020017f434f59546f6b656e0000000000000000000000000000000000000000000000008152506040518060400160405280600381526020017f434f59000000000000000000000000000000000000000000000000000000000081525081600390816200008f919062000453565b508060049081620000a1919062000453565b505050620000c4620000b86200010b60201b60201c565b6200011360201b60201c565b33600660006101000a81548173ffffffffffffffffffffffffffffffffffffffff021916908373ffffffffffffffffffffffffffffffffffffffff1602179055506200053a565b600033905090565b6000600560009054906101000a900473ffffffffffffffffffffffffffffffffffffffff16905081600560006101000a81548173ffffffffffffffffffffffffffffffffffffffff021916908373ffffffffffffffffffffffffffffffffffffffff1602179055508173ffffffffffffffffffffffffffffffffffffffff168173ffffffffffffffffffffffffffffffffffffffff167f8be0079c531659141344cd1fd0a4f28419497f9722a3daafe3b4186f6b6457e060405160405180910390a35050565b600081519050919050565b7f4e487b7100000000000000000000000000000000000000000000000000000000600052604160045260246000fd5b7f4e487b7100000000000000000000000000000000000000000000000000000000600052602260045260246000fd5b600060028204905060018216806200025b57607f821691505b60208210810362000271576200027062000213565b5b50919050565b60008190508160005260206000209050919050565b60006020601f8301049050919050565b600082821b905092915050565b600060088302620002db7fffffffffffffffffffffffffffffffffffffffffffffffffffffffffffffffff826200029c565b620002e786836200029c565b95508019841693508086168417925050509392505050565b6000819050919050565b6000819050919050565b6000620003346200032e6200032884620002ff565b62000309565b620002ff565b9050919050565b6000819050919050565b620003508362000313565b620003686200035f826200033b565b848454620002a9565b825550505050565b600090565b6200037f62000370565b6200038c81848462000345565b505050565b5b81811015620003b457620003a860008262000375565b60018101905062000392565b5050565b601f8211156200040357620003cd8162000277565b620003d8846200028c565b81016020851015620003e8578190505b62000400620003f7856200028c565b83018262000391565b50505b505050565b600082821c905092915050565b6000620004286000198460080262000408565b1980831691505092915050565b600062000443838362000415565b9150826002028217905092915050565b6200045e82620001d9565b67ffffffffffffffff8111156200047a5762000479620001e4565b5b62000486825462000242565b62000493828285620003b8565b600060209050601f831160018114620004cb5760008415620004b6578287015190505b620004c2858262000435565b86555062000532565b601f198416620004db8662000277565b60005b828110156200050557848901518255600182019150602085019450602081019050620004de565b8683101562000525578489015162000521601f89168262000415565b8355505b6001600288020188555050505b505050505050565b612274806200054a6000396000f3fe6080604052600436106101085760003560e01c8063715cc7f011610095578063a9059cbb11610064578063a9059cbb14610385578063ac28b14d146103c2578063bcf64e05146103cc578063dd62ed3e146103f5578063f2fde38b1461043257610108565b8063715cc7f0146102b55780638da5cb5b146102f257806395d89b411461031d578063a457c2d71461034857610108565b806323b872dd116100dc57806323b872dd146101bc578063313ce567146101f9578063395093511461022457806370a0823114610261578063715018a61461029e57610108565b8062362a951461010d57806306fdde0314610129578063095ea7b31461015457806318160ddd14610191575b600080fd5b61012760048036038101906101229190611577565b61045b565b005b34801561013557600080fd5b5061013e6105b3565b60405161014b9190611634565b60405180910390f35b34801561016057600080fd5b5061017b6004803603810190610176919061168c565b610645565b60405161018891906116e7565b60405180910390f35b34801561019d57600080fd5b506101a6610668565b6040516101b39190611711565b60405180910390f35b3480156101c857600080fd5b506101e360048036038101906101de919061172c565b610672565b6040516101f091906116e7565b60405180910390f35b34801561020557600080fd5b5061020e6106a1565b60405161021b919061179b565b60405180910390f35b34801561023057600080fd5b5061024b6004803603810190610246919061168c565b6106aa565b60405161025891906116e7565b60405180910390f35b34801561026d57600080fd5b5061028860048036038101906102839190611577565b6106e1565b6040516102959190611711565b60405180910390f35b3480156102aa57600080fd5b506102b3610729565b005b3480156102c157600080fd5b506102dc60048036038101906102d791906117ec565b61073d565b6040516102e99190611711565b60405180910390f35b3480156102fe57600080fd5b50610307610755565b6040516103149190611828565b60405180910390f35b34801561032957600080fd5b5061033261077f565b60405161033f9190611634565b60405180910390f35b34801561035457600080fd5b5061036f600480360381019061036a919061168c565b610811565b60405161037c91906116e7565b60405180910390f35b34801561039157600080fd5b506103ac60048036038101906103a7919061168c565b610888565b6040516103b991906116e7565b60405180910390f35b6103ca6108ab565b005b3480156103d857600080fd5b506103f360048036038101906103ee9190611843565b6109b1565b005b34801561040157600080fd5b5061041c60048036038101906104179190611883565b610ac6565b6040516104299190611711565b60405180910390f35b34801561043e57600080fd5b5061045960048036038101906104549190611577565b610b4d565b005b6000341161049e576040517f08c379a00000000000000000000000000000000000000000000000000000000081526004016104959061190f565b60405180910390fd5b600660009054906101000a900473ffffffffffffffffffffffffffffffffffffffff1673ffffffffffffffffffffffffffffffffffffffff166108fc349081150290604051600060405180830381858888f19350505050158015610506573d6000803e3d6000fd5b5061052933600260053461051a919061198d565b61052491906119be565b610bd0565b61054b81600360053461053c919061198d565b61054691906119be565b610bd0565b8073ffffffffffffffffffffffffffffffffffffffff163373ffffffffffffffffffffffffffffffffffffffff167f47f13c4a6a4328c6747536306c0aff8f0d7decba066726b8285cb08a35f17a0e346040516105a89190611711565b60405180910390a350565b6060600380546105c290611a2f565b80601f01602080910402602001604051908101604052809291908181526020018280546105ee90611a2f565b801561063b5780601f106106105761010080835404028352916020019161063b565b820191906000526020600020905b81548152906001019060200180831161061e57829003601f168201915b5050505050905090565b600080610650610d26565b905061065d818585610d2e565b600191505092915050565b6000600254905090565b60008061067d610d26565b905061068a858285610ef7565b610695858585610f83565b60019150509392505050565b60006012905090565b6000806106b5610d26565b90506106d68185856106c78589610ac6565b6106d19190611a60565b610d2e565b600191505092915050565b60008060008373ffffffffffffffffffffffffffffffffffffffff1673ffffffffffffffffffffffffffffffffffffffff168152602001908152602001600020549050919050565b6107316111f9565b61073b6000611277565b565b60076020528060005260406000206000915090505481565b6000600560009054906101000a900473ffffffffffffffffffffffffffffffffffffffff16905090565b60606004805461078e90611a2f565b80601f01602080910402602001604051908101604052809291908181526020018280546107ba90611a2f565b80156108075780601f106107dc57610100808354040283529160200191610807565b820191906000526020600020905b8154815290600101906020018083116107ea57829003601f168201915b5050505050905090565b60008061081c610d26565b9050600061082a8286610ac6565b90508381101561086f576040517f08c379a000000000000000000000000000000000000000000000000000000000815260040161086690611b06565b60405180910390fd5b61087c8286868403610d2e565b60019250505092915050565b600080610893610d26565b90506108a0818585610f83565b600191505092915050565b600034116108ee576040517f08c379a00000000000000000000000000000000000000000000000000000000081526004016108e590611b72565b60405180910390fd5b600660009054906101000a900473ffffffffffffffffffffffffffffffffffffffff1673ffffffffffffffffffffffffffffffffffffffff166108fc349081150290604051600060405180830381858888f19350505050158015610956573d6000803e3d6000fd5b506109613334610bd0565b3373ffffffffffffffffffffffffffffffffffffffff167f2a01595cddf097c90216094025db714da3f4e5bd8877b56ba86a24ecead8e543346040516109a79190611711565b60405180910390a2565b600082116109f4576040517f08c379a00000000000000000000000000000000000000000000000000000000081526004016109eb90611bde565b60405180910390fd5b816109fe336106e1565b1015610a3f576040517f08c379a0000000000000000000000000000000000000000000000000000000008152600401610a3690611c4a565b60405180910390fd5b610a49338361133d565b81600760008381526020019081526020016000206000828254610a6c9190611a60565b92505081905550803373ffffffffffffffffffffffffffffffffffffffff167f265f3479df3fade4f6c5d2935e2beb9fb3166b4842cd4703862f604ac1b708a384604051610aba9190611711565b60405180910390a35050565b6000600160008473ffffffffffffffffffffffffffffffffffffffff1673ffffffffffffffffffffffffffffffffffffffff16815260200190815260200160002060008373ffffffffffffffffffffffffffffffffffffffff1673ffffffffffffffffffffffffffffffffffffffff16815260200190815260200160002054905092915050565b610b556111f9565b600073ffffffffffffffffffffffffffffffffffffffff168173ffffffffffffffffffffffffffffffffffffffff1603610bc4576040517f08c379a0000000000000000000000000000000000000000000000000000000008152600401610bbb90611cdc565b60405180910390fd5b610bcd81611277565b50565b600073ffffffffffffffffffffffffffffffffffffffff168273ffffffffffffffffffffffffffffffffffffffff1603610c3f576040517f08c379a0000000000000000000000000000000000000000000000000000000008152600401610c3690611d48565b60405180910390fd5b610c4b6000838361150a565b8060026000828254610c5d9190611a60565b92505081905550806000808473ffffffffffffffffffffffffffffffffffffffff1673ffffffffffffffffffffffffffffffffffffffff168152602001908152602001600020600082825401925050819055508173ffffffffffffffffffffffffffffffffffffffff16600073ffffffffffffffffffffffffffffffffffffffff167fddf252ad1be2c89b69c2b068fc378daa952ba7f163c4a11628f55a4df523b3ef83604051610d0e9190611711565b60405180910390a3610d226000838361150f565b5050565b600033905090565b600073ffffffffffffffffffffffffffffffffffffffff168373ffffffffffffffffffffffffffffffffffffffff1603610d9d576040517f08c379a0000000000000000000000000000000000000000000000000000000008152600401610d9490611dda565b60405180910390fd5b600073ffffffffffffffffffffffffffffffffffffffff168273ffffffffffffffffffffffffffffffffffffffff1603610e0c576040517f08c379a0000000000000000000000000000000000000000000000000000000008152600401610e0390611e6c565b60405180910390fd5b80600160008573ffffffffffffffffffffffffffffffffffffffff1673ffffffffffffffffffffffffffffffffffffffff16815260200190815260200160002060008473ffffffffffffffffffffffffffffffffffffffff1673ffffffffffffffffffffffffffffffffffffffff168152602001908152602001600020819055508173ffffffffffffffffffffffffffffffffffffffff168373ffffffffffffffffffffffffffffffffffffffff167f8c5be1e5ebec7d5bd14f71427d1e84f3dd0314c0f7b2291e5b200ac8c7c3b92583604051610eea9190611711565b60405180910390a3505050565b6000610f038484610ac6565b90507fffffffffffffffffffffffffffffffffffffffffffffffffffffffffffffffff8114610f7d5781811015610f6f576040517f08c379a0000000000000000000000000000000000000000000000000000000008152600401610f6690611ed8565b60405180910390fd5b610f7c8484848403610d2e565b5b50505050565b600073ffffffffffffffffffffffffffffffffffffffff168373ffffffffffffffffffffffffffffffffffffffff1603610ff2576040517f08c379a0000000000000000000000000000000000000000000000000000000008152600401610fe990611f6a565b60405180910390fd5b600073ffffffffffffffffffffffffffffffffffffffff168273ffffffffffffffffffffffffffffffffffffffff1603611061576040517f08c379a000000000000000000000000000000000000000000000000000000000815260040161105890611ffc565b60405180910390fd5b61106c83838361150a565b60008060008573ffffffffffffffffffffffffffffffffffffffff1673ffffffffffffffffffffffffffffffffffffffff168152602001908152602001600020549050818110156110f2576040517f08c379a00000000000000000000000000000000000000000000000000000000081526004016110e99061208e565b60405180910390fd5b8181036000808673ffffffffffffffffffffffffffffffffffffffff1673ffffffffffffffffffffffffffffffffffffffff16815260200190815260200160002081905550816000808573ffffffffffffffffffffffffffffffffffffffff1673ffffffffffffffffffffffffffffffffffffffff168152602001908152602001600020600082825401925050819055508273ffffffffffffffffffffffffffffffffffffffff168473ffffffffffffffffffffffffffffffffffffffff167fddf252ad1be2c89b69c2b068fc378daa952ba7f163c4a11628f55a4df523b3ef846040516111e09190611711565b60405180910390a36111f384848461150f565b50505050565b611201610d26565b73ffffffffffffffffffffffffffffffffffffffff1661121f610755565b73ffffffffffffffffffffffffffffffffffffffff1614611275576040517f08c379a000000000000000000000000000000000000000000000000000000000815260040161126c906120fa565b60405180910390fd5b565b6000600560009054906101000a900473ffffffffffffffffffffffffffffffffffffffff16905081600560006101000a81548173ffffffffffffffffffffffffffffffffffffffff021916908373ffffffffffffffffffffffffffffffffffffffff1602179055508173ffffffffffffffffffffffffffffffffffffffff168173ffffffffffffffffffffffffffffffffffffffff167f8be0079c531659141344cd1fd0a4f28419497f9722a3daafe3b4186f6b6457e060405160405180910390a35050565b600073ffffffffffffffffffffffffffffffffffffffff168273ffffffffffffffffffffffffffffffffffffffff16036113ac576040517f08c379a00000000000000000000000000000000000000000000000000000000081526004016113a39061218c565b60405180910390fd5b6113b88260008361150a565b60008060008473ffffffffffffffffffffffffffffffffffffffff1673ffffffffffffffffffffffffffffffffffffffff1681526020019081526020016000205490508181101561143e576040517f08c379a00000000000000000000000000000000000000000000000000000000081526004016114359061221e565b60405180910390fd5b8181036000808573ffffffffffffffffffffffffffffffffffffffff1673ffffffffffffffffffffffffffffffffffffffff1681526020019081526020016000208190555081600260008282540392505081905550600073ffffffffffffffffffffffffffffffffffffffff168373ffffffffffffffffffffffffffffffffffffffff167fddf252ad1be2c89b69c2b068fc378daa952ba7f163c4a11628f55a4df523b3ef846040516114f19190611711565b60405180910390a36115058360008461150f565b505050565b505050565b505050565b600080fd5b600073ffffffffffffffffffffffffffffffffffffffff82169050919050565b600061154482611519565b9050919050565b61155481611539565b811461155f57600080fd5b50565b6000813590506115718161154b565b92915050565b60006020828403121561158d5761158c611514565b5b600061159b84828501611562565b91505092915050565b600081519050919050565b600082825260208201905092915050565b60005b838110156115de5780820151818401526020810190506115c3565b60008484015250505050565b6000601f19601f8301169050919050565b6000611606826115a4565b61161081856115af565b93506116208185602086016115c0565b611629816115ea565b840191505092915050565b6000602082019050818103600083015261164e81846115fb565b905092915050565b6000819050919050565b61166981611656565b811461167457600080fd5b50565b60008135905061168681611660565b92915050565b600080604083850312156116a3576116a2611514565b5b60006116b185828601611562565b92505060206116c285828601611677565b9150509250929050565b60008115159050919050565b6116e1816116cc565b82525050565b60006020820190506116fc60008301846116d8565b92915050565b61170b81611656565b82525050565b60006020820190506117266000830184611702565b92915050565b60008060006060848603121561174557611744611514565b5b600061175386828701611562565b935050602061176486828701611562565b925050604061177586828701611677565b9150509250925092565b600060ff82169050919050565b6117958161177f565b82525050565b60006020820190506117b0600083018461178c565b92915050565b6000819050919050565b6117c9816117b6565b81146117d457600080fd5b50565b6000813590506117e6816117c0565b92915050565b60006020828403121561180257611801611514565b5b6000611810848285016117d7565b91505092915050565b61182281611539565b82525050565b600060208201905061183d6000830184611819565b92915050565b6000806040838503121561185a57611859611514565b5b600061186885828601611677565b9250506020611879858286016117d7565b9150509250929050565b6000806040838503121561189a57611899611514565b5b60006118a885828601611562565b92505060206118b985828601611562565b9150509250929050565b7f4e6f20746f6b656e730000000000000000000000000000000000000000000000600082015250565b60006118f96009836115af565b9150611904826118c3565b602082019050919050565b60006020820190508181036000830152611928816118ec565b9050919050565b7f4e487b7100000000000000000000000000000000000000000000000000000000600052601260045260246000fd5b7f4e487b7100000000000000000000000000000000000000000000000000000000600052601160045260246000fd5b600061199882611656565b91506119a383611656565b9250826119b3576119b261192f565b5b828204905092915050565b60006119c982611656565b91506119d483611656565b92508282026119e281611656565b915082820484148315176119f9576119f861195e565b5b5092915050565b7f4e487b7100000000000000000000000000000000000000000000000000000000600052602260045260246000fd5b60006002820490506001821680611a4757607f821691505b602082108103611a5a57611a59611a00565b5b50919050565b6000611a6b82611656565b9150611a7683611656565b9250828201905080821115611a8e57611a8d61195e565b5b92915050565b7f45524332303a2064656372656173656420616c6c6f77616e63652062656c6f7760008201527f207a65726f000000000000000000000000000000000000000000000000000000602082015250565b6000611af06025836115af565b9150611afb82611a94565b604082019050919050565b60006020820190508181036000830152611b1f81611ae3565b9050919050565b7f4e6f20746f6b656e73206465706f736974656400000000000000000000000000600082015250565b6000611b5c6013836115af565b9150611b6782611b26565b602082019050919050565b60006020820190508181036000830152611b8b81611b4f565b9050919050565b7f416d6f756e74206d7573742062652067726561746572207468616e207a65726f600082015250565b6000611bc86020836115af565b9150611bd382611b92565b602082019050919050565b60006020820190508181036000830152611bf781611bbb565b9050919050565b7f4e6f7420656e6f7567682062616c616e636520746f206275726e000000000000600082015250565b6000611c34601a836115af565b9150611c3f82611bfe565b602082019050919050565b60006020820190508181036000830152611c6381611c27565b9050919050565b7f4f776e61626c653a206e6577206f776e657220697320746865207a65726f206160008201527f6464726573730000000000000000000000000000000000000000000000000000602082015250565b6000611cc66026836115af565b9150611cd182611c6a565b604082019050919050565b60006020820190508181036000830152611cf581611cb9565b9050919050565b7f45524332303a206d696e7420746f20746865207a65726f206164647265737300600082015250565b6000611d32601f836115af565b9150611d3d82611cfc565b602082019050919050565b60006020820190508181036000830152611d6181611d25565b9050919050565b7f45524332303a20617070726f76652066726f6d20746865207a65726f2061646460008201527f7265737300000000000000000000000000000000000000000000000000000000602082015250565b6000611dc46024836115af565b9150611dcf82611d68565b604082019050919050565b60006020820190508181036000830152611df381611db7565b9050919050565b7f45524332303a20617070726f766520746f20746865207a65726f20616464726560008201527f7373000000000000000000000000000000000000000000000000000000000000602082015250565b6000611e566022836115af565b9150611e6182611dfa565b604082019050919050565b60006020820190508181036000830152611e8581611e49565b9050919050565b7f45524332303a20696e73756666696369656e7420616c6c6f77616e6365000000600082015250565b6000611ec2601d836115af565b9150611ecd82611e8c565b602082019050919050565b60006020820190508181036000830152611ef181611eb5565b9050919050565b7f45524332303a207472616e736665722066726f6d20746865207a65726f20616460008201527f6472657373000000000000000000000000000000000000000000000000000000602082015250565b6000611f546025836115af565b9150611f5f82611ef8565b604082019050919050565b60006020820190508181036000830152611f8381611f47565b9050919050565b7f45524332303a207472616e7366657220746f20746865207a65726f206164647260008201527f6573730000000000000000000000000000000000000000000000000000000000602082015250565b6000611fe66023836115af565b9150611ff182611f8a565b604082019050919050565b6000602082019050818103600083015261201581611fd9565b9050919050565b7f45524332303a207472616e7366657220616d6f756e742065786365656473206260008201527f616c616e63650000000000000000000000000000000000000000000000000000602082015250565b60006120786026836115af565b91506120838261201c565b604082019050919050565b600060208201905081810360008301526120a78161206b565b9050919050565b7f4f776e61626c653a2063616c6c6572206973206e6f7420746865206f776e6572600082015250565b60006120e46020836115af565b91506120ef826120ae565b602082019050919050565b60006020820190508181036000830152612113816120d7565b9050919050565b7f45524332303a206275726e2066726f6d20746865207a65726f2061646472657360008201527f7300000000000000000000000000000000000000000000000000000000000000602082015250565b60006121766021836115af565b91506121818261211a565b604082019050919050565b600060208201905081810360008301526121a581612169565b9050919050565b7f45524332303a206275726e20616d6f756e7420657863656564732062616c616e60008201527f6365000000000000000000000000000000000000000000000000000000000000602082015250565b60006122086022836115af565b9150612213826121ac565b604082019050919050565b60006020820190508181036000830152612237816121fb565b905091905056fea2646970667358221220c79debbb88f7279ba704e4032a6f426b2bcc29dda65a127ed2ae6a4e8e7581ad64736f6c63430008110033",
  "linkReferences": {},
  "deployedLinkReferences": {}
}